{
  "_format": "hh-sol-artifact-1",
  "contractName": "InferenceStatsV0",
  "sourceName": "contracts/InferenceStatsV0.sol",
  "abi": [
    {
      "inputs": [],
      "stateMutability": "nonpayable",
      "type": "constructor"
    },
    {
      "anonymous": false,
      "inputs": [
        {
          "indexed": true,
          "internalType": "address",
          "name": "previousAdmin",
          "type": "address"
        },
        {
          "indexed": true,
          "internalType": "address",
          "name": "newAdmin",
          "type": "address"
        }
      ],
      "name": "AdminTransferred",
      "type": "event"
    },
    {
      "anonymous": false,
      "inputs": [
        {
          "indexed": false,
          "internalType": "string",
          "name": "appId",
          "type": "string"
        },
        {
          "indexed": false,
          "internalType": "uint256",
          "name": "blockNumber",
          "type": "uint256"
        },
        {
          "indexed": false,
          "internalType": "uint256",
          "name": "inferenceCount",
          "type": "uint256"
        },
        {
          "indexed": false,
          "internalType": "uint256",
          "name": "tokenCount",
          "type": "uint256"
        }
      ],
      "name": "StatsWritten",
      "type": "event"
    },
    {
      "inputs": [],
      "name": "admin",
      "outputs": [
        {
          "internalType": "address",
          "name": "",
          "type": "address"
        }
      ],
      "stateMutability": "view",
      "type": "function"
    },
    {
      "inputs": [
        {
          "internalType": "string",
          "name": "",
          "type": "string"
        },
        {
          "internalType": "uint256",
          "name": "",
          "type": "uint256"
        }
      ],
      "name": "appStats",
      "outputs": [
        {
          "internalType": "uint256",
          "name": "blockNumber",
          "type": "uint256"
        },
        {
          "internalType": "uint256",
          "name": "inferenceCount",
          "type": "uint256"
        },
        {
          "internalType": "uint256",
          "name": "tokenCount",
          "type": "uint256"
        }
      ],
      "stateMutability": "view",
      "type": "function"
    },
    {
      "inputs": [
        {
          "internalType": "string",
          "name": "appId",
          "type": "string"
        }
      ],
      "name": "getLatestStats",
      "outputs": [
        {
          "components": [
            {
              "internalType": "uint256",
              "name": "blockNumber",
              "type": "uint256"
            },
            {
              "internalType": "uint256",
              "name": "inferenceCount",
              "type": "uint256"
            },
            {
              "internalType": "uint256",
              "name": "tokenCount",
              "type": "uint256"
            }
          ],
          "internalType": "struct InferenceStatsV0.StatEntry",
          "name": "",
          "type": "tuple"
        }
      ],
      "stateMutability": "view",
      "type": "function"
    },
    {
      "inputs": [
        {
          "internalType": "string",
          "name": "appId",
          "type": "string"
        },
        {
          "internalType": "uint256",
          "name": "index",
          "type": "uint256"
        }
      ],
      "name": "getStatsByIndex",
      "outputs": [
        {
          "components": [
            {
              "internalType": "uint256",
              "name": "blockNumber",
              "type": "uint256"
            },
            {
              "internalType": "uint256",
              "name": "inferenceCount",
              "type": "uint256"
            },
            {
              "internalType": "uint256",
              "name": "tokenCount",
              "type": "uint256"
            }
          ],
          "internalType": "struct InferenceStatsV0.StatEntry",
          "name": "",
          "type": "tuple"
        }
      ],
      "stateMutability": "view",
      "type": "function"
    },
    {
      "inputs": [
        {
          "internalType": "string",
          "name": "appId",
          "type": "string"
        }
      ],
      "name": "getStatsCount",
      "outputs": [
        {
          "internalType": "uint256",
          "name": "",
          "type": "uint256"
        }
      ],
      "stateMutability": "view",
      "type": "function"
    },
    {
      "inputs": [
        {
          "internalType": "string",
          "name": "appId",
          "type": "string"
        }
      ],
      "name": "getStatsHistory",
      "outputs": [
        {
          "components": [
            {
              "internalType": "uint256",
              "name": "blockNumber",
              "type": "uint256"
            },
            {
              "internalType": "uint256",
              "name": "inferenceCount",
              "type": "uint256"
            },
            {
              "internalType": "uint256",
              "name": "tokenCount",
              "type": "uint256"
            }
          ],
          "internalType": "struct InferenceStatsV0.StatEntry[]",
          "name": "",
          "type": "tuple[]"
        }
      ],
      "stateMutability": "view",
      "type": "function"
    },
    {
      "inputs": [
        {
          "internalType": "address",
          "name": "newAdmin",
          "type": "address"
        }
      ],
      "name": "transferAdmin",
      "outputs": [],
      "stateMutability": "nonpayable",
      "type": "function"
    },
    {
      "inputs": [
        {
          "internalType": "string",
          "name": "appId",
          "type": "string"
        },
        {
          "internalType": "uint256",
          "name": "inferenceCount",
          "type": "uint256"
        },
        {
          "internalType": "uint256",
          "name": "tokenCount",
          "type": "uint256"
        }
      ],
      "name": "writeStats",
      "outputs": [],
      "stateMutability": "nonpayable",
      "type": "function"
    }
  ],
  "bytecode": "0x6080604052348015600f57600080fd5b50336000806101000a81548173ffffffffffffffffffffffffffffffffffffffff021916908373ffffffffffffffffffffffffffffffffffffffff1602179055506112f18061005f6000396000f3fe608060405234801561001057600080fd5b50600436106100885760003560e01c8063dcc458a51161005b578063dcc458a514610125578063e05dc55214610155578063f674b04c14610185578063f851a440146101b757610088565b8063182237001461008d578063486233fe146100bd57806375829def146100d95780638b8eadb8146100f5575b600080fd5b6100a760048036038101906100a29190610aea565b6101d5565b6040516100b49190610c3d565b60405180910390f35b6100d760048036038101906100d29190610c8b565b6102b4565b005b6100f360048036038101906100ee9190610d58565b610450565b005b61010f600480360381019061010a9190610aea565b610611565b60405161011c9190610dc7565b60405180910390f35b61013f600480360381019061013a9190610de2565b610762565b60405161014c9190610dc7565b60405180910390f35b61016f600480360381019061016a9190610aea565b610880565b60405161017c9190610e4d565b60405180910390f35b61019f600480360381019061019a9190610de2565b6108ee565b6040516101ae93929190610e68565b60405180910390f35b6101bf61094b565b6040516101cc9190610eae565b60405180910390f35b6060600082511161021b576040517f08c379a000000000000000000000000000000000000000000000000000000000815260040161021290610f26565b60405180910390fd5b60018260405161022b9190610fb7565b9081526020016040518091039020805480602002602001604051908101604052809291908181526020016000905b828210156102a95783829060005260206000209060030201604051806060016040529081600082015481526020016001820154815260200160028201548152505081526020019060010190610259565b505050509050919050565b60008054906101000a900473ffffffffffffffffffffffffffffffffffffffff1673ffffffffffffffffffffffffffffffffffffffff163373ffffffffffffffffffffffffffffffffffffffff1614610342576040517f08c379a000000000000000000000000000000000000000000000000000000000815260040161033990611040565b60405180910390fd5b6000835111610386576040517f08c379a000000000000000000000000000000000000000000000000000000000815260040161037d90610f26565b60405180910390fd5b600060405180606001604052804381526020018481526020018381525090506001846040516103b59190610fb7565b908152602001604051809103902081908060018154018082558091505060019003906000526020600020906003020160009091909190915060008201518160000155602082015181600101556040820151816002015550507fb0550331fc36b1fa685693964fd67424ff5a596eda0db54e6c32b88ef0d506ac844385856040516104429493929190611099565b60405180910390a150505050565b60008054906101000a900473ffffffffffffffffffffffffffffffffffffffff1673ffffffffffffffffffffffffffffffffffffffff163373ffffffffffffffffffffffffffffffffffffffff16146104de576040517f08c379a00000000000000000000000000000000000000000000000000000000081526004016104d590611040565b60405180910390fd5b600073ffffffffffffffffffffffffffffffffffffffff168173ffffffffffffffffffffffffffffffffffffffff160361054d576040517f08c379a000000000000000000000000000000000000000000000000000000000815260040161054490611131565b60405180910390fd5b60008060009054906101000a900473ffffffffffffffffffffffffffffffffffffffff169050816000806101000a81548173ffffffffffffffffffffffffffffffffffffffff021916908373ffffffffffffffffffffffffffffffffffffffff1602179055508173ffffffffffffffffffffffffffffffffffffffff168173ffffffffffffffffffffffffffffffffffffffff167ff8ccb027dfcd135e000e9d45e6cc2d662578a8825d4c45b5e32e0adf67e79ec660405160405180910390a35050565b61061961096f565b600082511161065d576040517f08c379a000000000000000000000000000000000000000000000000000000000815260040161065490610f26565b60405180910390fd5b600060018360405161066f9190610fb7565b908152602001604051809103902080549050116106c1576040517f08c379a00000000000000000000000000000000000000000000000000000000081526004016106b89061119d565b60405180910390fd5b60006001836040516106d39190610fb7565b90815260200160405180910390208054905090506001836040516106f79190610fb7565b908152602001604051809103902060018261071291906111ec565b8154811061072357610722611220565b5b90600052602060002090600302016040518060600160405290816000820154815260200160018201548152602001600282015481525050915050919050565b61076a61096f565b60008351116107ae576040517f08c379a00000000000000000000000000000000000000000000000000000000081526004016107a590610f26565b60405180910390fd5b6001836040516107be9190610fb7565b9081526020016040518091039020805490508210610811576040517f08c379a00000000000000000000000000000000000000000000000000000000081526004016108089061129b565b60405180910390fd5b6001836040516108219190610fb7565b9081526020016040518091039020828154811061084157610840611220565b5b90600052602060002090600302016040518060600160405290816000820154815260200160018201548152602001600282015481525050905092915050565b6000808251116108c5576040517f08c379a00000000000000000000000000000000000000000000000000000000081526004016108bc90610f26565b60405180910390fd5b6001826040516108d59190610fb7565b9081526020016040518091039020805490509050919050565b600182805160208101820180518482526020830160208501208183528095505050505050818154811061092057600080fd5b9060005260206000209060030201600091509150508060000154908060010154908060020154905083565b60008054906101000a900473ffffffffffffffffffffffffffffffffffffffff1681565b60405180606001604052806000815260200160008152602001600081525090565b6000604051905090565b600080fd5b600080fd5b600080fd5b600080fd5b6000601f19601f8301169050919050565b7f4e487b7100000000000000000000000000000000000000000000000000000000600052604160045260246000fd5b6109f7826109ae565b810181811067ffffffffffffffff82111715610a1657610a156109bf565b5b80604052505050565b6000610a29610990565b9050610a3582826109ee565b919050565b600067ffffffffffffffff821115610a5557610a546109bf565b5b610a5e826109ae565b9050602081019050919050565b82818337600083830152505050565b6000610a8d610a8884610a3a565b610a1f565b905082815260208101848484011115610aa957610aa86109a9565b5b610ab4848285610a6b565b509392505050565b600082601f830112610ad157610ad06109a4565b5b8135610ae1848260208601610a7a565b91505092915050565b600060208284031215610b0057610aff61099a565b5b600082013567ffffffffffffffff811115610b1e57610b1d61099f565b5b610b2a84828501610abc565b91505092915050565b600081519050919050565b600082825260208201905092915050565b6000819050602082019050919050565b6000819050919050565b610b7281610b5f565b82525050565b606082016000820151610b8e6000850182610b69565b506020820151610ba16020850182610b69565b506040820151610bb46040850182610b69565b50505050565b6000610bc68383610b78565b60608301905092915050565b6000602082019050919050565b6000610bea82610b33565b610bf48185610b3e565b9350610bff83610b4f565b8060005b83811015610c30578151610c178882610bba565b9750610c2283610bd2565b925050600181019050610c03565b5085935050505092915050565b60006020820190508181036000830152610c578184610bdf565b905092915050565b610c6881610b5f565b8114610c7357600080fd5b50565b600081359050610c8581610c5f565b92915050565b600080600060608486031215610ca457610ca361099a565b5b600084013567ffffffffffffffff811115610cc257610cc161099f565b5b610cce86828701610abc565b9350506020610cdf86828701610c76565b9250506040610cf086828701610c76565b9150509250925092565b600073ffffffffffffffffffffffffffffffffffffffff82169050919050565b6000610d2582610cfa565b9050919050565b610d3581610d1a565b8114610d4057600080fd5b50565b600081359050610d5281610d2c565b92915050565b600060208284031215610d6e57610d6d61099a565b5b6000610d7c84828501610d43565b91505092915050565b606082016000820151610d9b6000850182610b69565b506020820151610dae6020850182610b69565b506040820151610dc16040850182610b69565b50505050565b6000606082019050610ddc6000830184610d85565b92915050565b60008060408385031215610df957610df861099a565b5b600083013567ffffffffffffffff811115610e1757610e1661099f565b5b610e2385828601610abc565b9250506020610e3485828601610c76565b9150509250929050565b610e4781610b5f565b82525050565b6000602082019050610e626000830184610e3e565b92915050565b6000606082019050610e7d6000830186610e3e565b610e8a6020830185610e3e565b610e976040830184610e3e565b949350505050565b610ea881610d1a565b82525050565b6000602082019050610ec36000830184610e9f565b92915050565b600082825260208201905092915050565b7f4170702049442063616e6e6f7420626520656d70747900000000000000000000600082015250565b6000610f10601683610ec9565b9150610f1b82610eda565b602082019050919050565b60006020820190508181036000830152610f3f81610f03565b9050919050565b600081519050919050565b600081905092915050565b60005b83811015610f7a578082015181840152602081019050610f5f565b60008484015250505050565b6000610f9182610f46565b610f9b8185610f51565b9350610fab818560208601610f5c565b80840191505092915050565b6000610fc38284610f86565b915081905092915050565b7f4f6e6c792061646d696e2063616e2063616c6c20746869732066756e6374696f60008201527f6e00000000000000000000000000000000000000000000000000000000000000602082015250565b600061102a602183610ec9565b915061103582610fce565b604082019050919050565b600060208201905081810360008301526110598161101d565b9050919050565b600061106b82610f46565b6110758185610ec9565b9350611085818560208601610f5c565b61108e816109ae565b840191505092915050565b600060808201905081810360008301526110b38187611060565b90506110c26020830186610e3e565b6110cf6040830185610e3e565b6110dc6060830184610e3e565b95945050505050565b7f496e76616c69642061646d696e20616464726573730000000000000000000000600082015250565b600061111b601583610ec9565b9150611126826110e5565b602082019050919050565b6000602082019050818103600083015261114a8161110e565b9050919050565b7f4e6f20737461747320617661696c61626c650000000000000000000000000000600082015250565b6000611187601283610ec9565b915061119282611151565b602082019050919050565b600060208201905081810360008301526111b68161117a565b9050919050565b7f4e487b7100000000000000000000000000000000000000000000000000000000600052601160045260246000fd5b60006111f782610b5f565b915061120283610b5f565b925082820390508181111561121a576112196111bd565b5b92915050565b7f4e487b7100000000000000000000000000000000000000000000000000000000600052603260045260246000fd5b7f496e646578206f7574206f6620626f756e647300000000000000000000000000600082015250565b6000611285601383610ec9565b91506112908261124f565b602082019050919050565b600060208201905081810360008301526112b481611278565b905091905056fea264697066735822122020874eec4c2f713986cecfd7470507590956800204e6e62fc4182fa31893bff264736f6c634300081c0033",
  "linkReferences": {},
  "deployedLinkReferences": {}
}