{
  "_format": "hh-sol-artifact-1",
  "contractName": "InferenceListenerV0",
  "sourceName": "contracts/InferenceListenerV0.sol",
  "abi": [
    {
      "inputs": [],
      "stateMutability": "nonpayable",
      "type": "constructor"
    },
    {
      "anonymous": false,
      "inputs": [
        {
          "indexed": true,
          "internalType": "address",
          "name": "previousAdmin",
          "type": "address"
        },
        {
          "indexed": true,
          "internalType": "address",
          "name": "newAdmin",
          "type": "address"
        }
      ],
      "name": "AdminTransferred",
      "type": "event"
    },
    {
      "anonymous": false,
      "inputs": [
        {
          "indexed": false,
          "internalType": "uint256",
          "name": "blockNumber",
          "type": "uint256"
        },
        {
          "indexed": false,
          "internalType": "string",
          "name": "appId",
          "type": "string"
        },
        {
          "indexed": false,
          "internalType": "address[]",
          "name": "userWallets",
          "type": "address[]"
        },
        {
          "indexed": false,
          "internalType": "bytes32[]",
          "name": "logHashes",
          "type": "bytes32[]"
        },
        {
          "indexed": false,
          "internalType": "uint256",
          "name": "count",
          "type": "uint256"
        }
      ],
      "name": "BatchInferenceLogs",
      "type": "event"
    },
    {
      "anonymous": false,
      "inputs": [
        {
          "indexed": false,
          "internalType": "uint256",
          "name": "blockNumber",
          "type": "uint256"
        },
        {
          "indexed": false,
          "internalType": "string",
          "name": "appId",
          "type": "string"
        },
        {
          "indexed": false,
          "internalType": "address",
          "name": "userWallet",
          "type": "address"
        },
        {
          "indexed": false,
          "internalType": "bytes32",
          "name": "logHash",
          "type": "bytes32"
        }
      ],
      "name": "InferenceLog",
      "type": "event"
    },
    {
      "anonymous": false,
      "inputs": [
        {
          "indexed": false,
          "internalType": "uint256",
          "name": "previousLimit",
          "type": "uint256"
        },
        {
          "indexed": false,
          "internalType": "uint256",
          "name": "newLimit",
          "type": "uint256"
        }
      ],
      "name": "MaxSubmissionsUpdated",
      "type": "event"
    },
    {
      "inputs": [],
      "name": "admin",
      "outputs": [
        {
          "internalType": "address",
          "name": "",
          "type": "address"
        }
      ],
      "stateMutability": "view",
      "type": "function"
    },
    {
      "inputs": [],
      "name": "maxSubmissionsPerBlock",
      "outputs": [
        {
          "internalType": "uint256",
          "name": "",
          "type": "uint256"
        }
      ],
      "stateMutability": "view",
      "type": "function"
    },
    {
      "inputs": [
        {
          "internalType": "string",
          "name": "appId",
          "type": "string"
        },
        {
          "internalType": "address[]",
          "name": "userWallets",
          "type": "address[]"
        },
        {
          "internalType": "bytes32[]",
          "name": "logHashes",
          "type": "bytes32[]"
        }
      ],
      "name": "submitBatchInferenceLogs",
      "outputs": [],
      "stateMutability": "nonpayable",
      "type": "function"
    },
    {
      "inputs": [
        {
          "internalType": "string",
          "name": "appId",
          "type": "string"
        },
        {
          "internalType": "address",
          "name": "userWallet",
          "type": "address"
        },
        {
          "internalType": "bytes32",
          "name": "logHash",
          "type": "bytes32"
        }
      ],
      "name": "submitInferenceLog",
      "outputs": [],
      "stateMutability": "nonpayable",
      "type": "function"
    },
    {
      "inputs": [
        {
          "internalType": "address",
          "name": "newAdmin",
          "type": "address"
        }
      ],
      "name": "transferAdmin",
      "outputs": [],
      "stateMutability": "nonpayable",
      "type": "function"
    },
    {
      "inputs": [
        {
          "internalType": "uint256",
          "name": "newLimit",
          "type": "uint256"
        }
      ],
      "name": "updateMaxSubmissions",
      "outputs": [],
      "stateMutability": "nonpayable",
      "type": "function"
    }
  ],
  "bytecode": "0x60806040526064600155348015601457600080fd5b50336000806101000a81548173ffffffffffffffffffffffffffffffffffffffff021916908373ffffffffffffffffffffffffffffffffffffffff1602179055506117d8806100646000396000f3fe608060405234801561001057600080fd5b50600436106100625760003560e01c80632e2c66191461006757806363bf186b1461008557806375829def146100a1578063b1cbbe27146100bd578063c5c6ae5a146100d9578063f851a440146100f5575b600080fd5b61006f610113565b60405161007c9190610a1c565b60405180910390f35b61009f600480360381019061009a9190610a77565b610119565b005b6100bb60048036038101906100b69190610b02565b610235565b005b6100d760048036038101906100d29190610e36565b6103f6565b005b6100f360048036038101906100ee9190610edd565b61075f565b005b6100fd6109df565b60405161010a9190610f5b565b60405180910390f35b60015481565b60008054906101000a900473ffffffffffffffffffffffffffffffffffffffff1673ffffffffffffffffffffffffffffffffffffffff163373ffffffffffffffffffffffffffffffffffffffff16146101a7576040517f08c379a000000000000000000000000000000000000000000000000000000000815260040161019e90610ff9565b60405180910390fd5b600081116101ea576040517f08c379a00000000000000000000000000000000000000000000000000000000081526004016101e190611065565b60405180910390fd5b60006001549050816001819055507f36b70c1f5d60ce3f4467dac046621790d5e5a41cfdc95073e982e7958b82e5018183604051610229929190611085565b60405180910390a15050565b60008054906101000a900473ffffffffffffffffffffffffffffffffffffffff1673ffffffffffffffffffffffffffffffffffffffff163373ffffffffffffffffffffffffffffffffffffffff16146102c3576040517f08c379a00000000000000000000000000000000000000000000000000000000081526004016102ba90610ff9565b60405180910390fd5b600073ffffffffffffffffffffffffffffffffffffffff168173ffffffffffffffffffffffffffffffffffffffff1603610332576040517f08c379a0000000000000000000000000000000000000000000000000000000008152600401610329906110fa565b60405180910390fd5b60008060009054906101000a900473ffffffffffffffffffffffffffffffffffffffff169050816000806101000a81548173ffffffffffffffffffffffffffffffffffffffff021916908373ffffffffffffffffffffffffffffffffffffffff1602179055508173ffffffffffffffffffffffffffffffffffffffff168173ffffffffffffffffffffffffffffffffffffffff167ff8ccb027dfcd135e000e9d45e6cc2d662578a8825d4c45b5e32e0adf67e79ec660405160405180910390a35050565b60008054906101000a900473ffffffffffffffffffffffffffffffffffffffff1673ffffffffffffffffffffffffffffffffffffffff163373ffffffffffffffffffffffffffffffffffffffff1614610484576040517f08c379a000000000000000000000000000000000000000000000000000000000815260040161047b90610ff9565b60405180910390fd5b600082519050600081116104cd576040517f08c379a00000000000000000000000000000000000000000000000000000000081526004016104c490611166565b60405180910390fd5b81518114610510576040517f08c379a0000000000000000000000000000000000000000000000000000000008152600401610507906111d2565b60405180910390fd5b600154816002866040516105249190611263565b908152602001604051809103902060004381526020019081526020016000205461054e91906112a9565b111561058f576040517f08c379a00000000000000000000000000000000000000000000000000000000081526004016105869061134f565b60405180910390fd5b806002856040516105a09190611263565b9081526020016040518091039020600043815260200190815260200160002060008282546105ce91906112a9565b925050819055506000845111610619576040517f08c379a0000000000000000000000000000000000000000000000000000000008152600401610610906113bb565b60405180910390fd5b60005b8181101561071957600073ffffffffffffffffffffffffffffffffffffffff1684828151811061064f5761064e6113db565b5b602002602001015173ffffffffffffffffffffffffffffffffffffffff16036106ad576040517f08c379a00000000000000000000000000000000000000000000000000000000081526004016106a490611456565b60405180910390fd5b6000801b8382815181106106c4576106c36113db565b5b60200260200101510361070c576040517f08c379a0000000000000000000000000000000000000000000000000000000008152600401610703906114c2565b60405180910390fd5b808060010191505061061c565b507ff54d5346e271c49b07eac5e5f269470b930ea5e5095a58b197c2c447d48032224385858585604051610751959493929190611697565b60405180910390a150505050565b60008054906101000a900473ffffffffffffffffffffffffffffffffffffffff1673ffffffffffffffffffffffffffffffffffffffff163373ffffffffffffffffffffffffffffffffffffffff16146107ed576040517f08c379a00000000000000000000000000000000000000000000000000000000081526004016107e490610ff9565b60405180910390fd5b6001546002846040516108009190611263565b908152602001604051809103902060004381526020019081526020016000205410610860576040517f08c379a00000000000000000000000000000000000000000000000000000000081526004016108579061134f565b60405180910390fd5b6002836040516108709190611263565b9081526020016040518091039020600043815260200190815260200160002060008154809291906108a0906116ff565b919050555060008351116108e9576040517f08c379a00000000000000000000000000000000000000000000000000000000081526004016108e0906113bb565b60405180910390fd5b600073ffffffffffffffffffffffffffffffffffffffff168273ffffffffffffffffffffffffffffffffffffffff1603610958576040517f08c379a000000000000000000000000000000000000000000000000000000000815260040161094f90611456565b60405180910390fd5b6000801b810361099d576040517f08c379a0000000000000000000000000000000000000000000000000000000008152600401610994906114c2565b60405180910390fd5b7f4f87970002ba61dfc9f15d75a7b80afea0eacd54079de9e715a4dce4bb18c39d438484846040516109d29493929190611756565b60405180910390a1505050565b60008054906101000a900473ffffffffffffffffffffffffffffffffffffffff1681565b6000819050919050565b610a1681610a03565b82525050565b6000602082019050610a316000830184610a0d565b92915050565b6000604051905090565b600080fd5b600080fd5b610a5481610a03565b8114610a5f57600080fd5b50565b600081359050610a7181610a4b565b92915050565b600060208284031215610a8d57610a8c610a41565b5b6000610a9b84828501610a62565b91505092915050565b600073ffffffffffffffffffffffffffffffffffffffff82169050919050565b6000610acf82610aa4565b9050919050565b610adf81610ac4565b8114610aea57600080fd5b50565b600081359050610afc81610ad6565b92915050565b600060208284031215610b1857610b17610a41565b5b6000610b2684828501610aed565b91505092915050565b600080fd5b600080fd5b6000601f19601f8301169050919050565b7f4e487b7100000000000000000000000000000000000000000000000000000000600052604160045260246000fd5b610b8282610b39565b810181811067ffffffffffffffff82111715610ba157610ba0610b4a565b5b80604052505050565b6000610bb4610a37565b9050610bc08282610b79565b919050565b600067ffffffffffffffff821115610be057610bdf610b4a565b5b610be982610b39565b9050602081019050919050565b82818337600083830152505050565b6000610c18610c1384610bc5565b610baa565b905082815260208101848484011115610c3457610c33610b34565b5b610c3f848285610bf6565b509392505050565b600082601f830112610c5c57610c5b610b2f565b5b8135610c6c848260208601610c05565b91505092915050565b600067ffffffffffffffff821115610c9057610c8f610b4a565b5b602082029050602081019050919050565b600080fd5b6000610cb9610cb484610c75565b610baa565b90508083825260208201905060208402830185811115610cdc57610cdb610ca1565b5b835b81811015610d055780610cf18882610aed565b845260208401935050602081019050610cde565b5050509392505050565b600082601f830112610d2457610d23610b2f565b5b8135610d34848260208601610ca6565b91505092915050565b600067ffffffffffffffff821115610d5857610d57610b4a565b5b602082029050602081019050919050565b6000819050919050565b610d7c81610d69565b8114610d8757600080fd5b50565b600081359050610d9981610d73565b92915050565b6000610db2610dad84610d3d565b610baa565b90508083825260208201905060208402830185811115610dd557610dd4610ca1565b5b835b81811015610dfe5780610dea8882610d8a565b845260208401935050602081019050610dd7565b5050509392505050565b600082601f830112610e1d57610e1c610b2f565b5b8135610e2d848260208601610d9f565b91505092915050565b600080600060608486031215610e4f57610e4e610a41565b5b600084013567ffffffffffffffff811115610e6d57610e6c610a46565b5b610e7986828701610c47565b935050602084013567ffffffffffffffff811115610e9a57610e99610a46565b5b610ea686828701610d0f565b925050604084013567ffffffffffffffff811115610ec757610ec6610a46565b5b610ed386828701610e08565b9150509250925092565b600080600060608486031215610ef657610ef5610a41565b5b600084013567ffffffffffffffff811115610f1457610f13610a46565b5b610f2086828701610c47565b9350506020610f3186828701610aed565b9250506040610f4286828701610d8a565b9150509250925092565b610f5581610ac4565b82525050565b6000602082019050610f706000830184610f4c565b92915050565b600082825260208201905092915050565b7f4f6e6c792061646d696e2063616e2063616c6c20746869732066756e6374696f60008201527f6e00000000000000000000000000000000000000000000000000000000000000602082015250565b6000610fe3602183610f76565b9150610fee82610f87565b604082019050919050565b6000602082019050818103600083015261101281610fd6565b9050919050565b7f4c696d6974206d7573742062652067726561746572207468616e207a65726f00600082015250565b600061104f601f83610f76565b915061105a82611019565b602082019050919050565b6000602082019050818103600083015261107e81611042565b9050919050565b600060408201905061109a6000830185610a0d565b6110a76020830184610a0d565b9392505050565b7f496e76616c69642061646d696e20616464726573730000000000000000000000600082015250565b60006110e4601583610f76565b91506110ef826110ae565b602082019050919050565b60006020820190508181036000830152611113816110d7565b9050919050565b7f456d707479206261746368000000000000000000000000000000000000000000600082015250565b6000611150600b83610f76565b915061115b8261111a565b602082019050919050565b6000602082019050818103600083015261117f81611143565b9050919050565b7f4172726179206c656e677468206d69736d617463680000000000000000000000600082015250565b60006111bc601583610f76565b91506111c782611186565b602082019050919050565b600060208201905081810360008301526111eb816111af565b9050919050565b600081519050919050565b600081905092915050565b60005b8381101561122657808201518184015260208101905061120b565b60008484015250505050565b600061123d826111f2565b61124781856111fd565b9350611257818560208601611208565b80840191505092915050565b600061126f8284611232565b915081905092915050565b7f4e487b7100000000000000000000000000000000000000000000000000000000600052601160045260246000fd5b60006112b482610a03565b91506112bf83610a03565b92508282019050808211156112d7576112d661127a565b5b92915050565b7f52617465206c696d697420657863656564656420666f72207468697320626c6f60008201527f636b000000000000000000000000000000000000000000000000000000000000602082015250565b6000611339602283610f76565b9150611344826112dd565b604082019050919050565b600060208201905081810360008301526113688161132c565b9050919050565b7f4170702049442063616e6e6f7420626520656d70747900000000000000000000600082015250565b60006113a5601683610f76565b91506113b08261136f565b602082019050919050565b600060208201905081810360008301526113d481611398565b9050919050565b7f4e487b7100000000000000000000000000000000000000000000000000000000600052603260045260246000fd5b7f496e76616c696420757365722077616c6c657420616464726573730000000000600082015250565b6000611440601b83610f76565b915061144b8261140a565b602082019050919050565b6000602082019050818103600083015261146f81611433565b9050919050565b7f496e76616c6964206c6f67206861736800000000000000000000000000000000600082015250565b60006114ac601083610f76565b91506114b782611476565b602082019050919050565b600060208201905081810360008301526114db8161149f565b9050919050565b60006114ed826111f2565b6114f78185610f76565b9350611507818560208601611208565b61151081610b39565b840191505092915050565b600081519050919050565b600082825260208201905092915050565b6000819050602082019050919050565b61155081610ac4565b82525050565b60006115628383611547565b60208301905092915050565b6000602082019050919050565b60006115868261151b565b6115908185611526565b935061159b83611537565b8060005b838110156115cc5781516115b38882611556565b97506115be8361156e565b92505060018101905061159f565b5085935050505092915050565b600081519050919050565b600082825260208201905092915050565b6000819050602082019050919050565b61160e81610d69565b82525050565b60006116208383611605565b60208301905092915050565b6000602082019050919050565b6000611644826115d9565b61164e81856115e4565b9350611659836115f5565b8060005b8381101561168a5781516116718882611614565b975061167c8361162c565b92505060018101905061165d565b5085935050505092915050565b600060a0820190506116ac6000830188610a0d565b81810360208301526116be81876114e2565b905081810360408301526116d2818661157b565b905081810360608301526116e68185611639565b90506116f56080830184610a0d565b9695505050505050565b600061170a82610a03565b91507fffffffffffffffffffffffffffffffffffffffffffffffffffffffffffffffff820361173c5761173b61127a565b5b600182019050919050565b61175081610d69565b82525050565b600060808201905061176b6000830187610a0d565b818103602083015261177d81866114e2565b905061178c6040830185610f4c565b6117996060830184611747565b9594505050505056fea2646970667358221220445306459d12b642032c2ea49dbc5769e06383ee6ba0e728aeaf9bc1ebf707d864736f6c634300081c0033",
  "linkReferences": {},
  "deployedLinkReferences": {}
}